:020000040800F2
:10000000C8FC01206D020008D56B000809580008E3
:10001000D16B0008A1130008B1AF00080000000078
:10002000000000000000000000000000B16E0008A9
:10003000ED13000800000000F16B0008E16E0008FD
:10004000870200088702000887020008870200086C
:10005000870200088702000887020008870200085C
:10006000870200088702000887020008A51300081D
:10007000B113000887020008BD130008C913000867
:10008000D5130008E1130008870200088702000862
:10009000870200088702000887020008870200081C
:1000A000870200088702000887020008870200080C
:1000B000D16F000811700008517000088702000815
:1000C00087020008870200088702000887020008EC
:1000D000870200088702000859790008657900083E
:1000E000F1130008870200088702000891710008D8
:1000F000E9710008DD710008870200088702000826
:100100008702000887020008917000088702000833
:1001100087020008B973000887020008D170000840
:10012000870200088702000887020008870200088B
:10013000870200088702000887020008870200087B
:10014000870200088702000887020008870200086B
:1001500087020008870200088702000875790008F6
:10016000870200088702000887020008870200084B
:1001700087020008DD6B000887020008000000000D
:10018000870200088702000800F002F800F05FF81C
:1001900014A696E8000CB244B344DA4501D100F04D
:1001A00056F8BAE80F000FA696E83000A5EB040554
:1001B00004EB0607AAEB0704A7F101074FEA1515A0
:1001C0004FEA3414A4F10104AC4201D300F03FF82B
:1001D00013F0010F18BFFB1A43F0010300F001F800
:1001E000DBE718472C3E01005C3E0100103A24BFBB
:1001F00078C878C1FAD8520724BF30C830C144BF8C
:1002000004680C6070470000704700000023002461
:1002100000250026103A28BF78C1FBD8520728BF16
:1002200030C148BF0B607047642900F03181002065
:1002300070471FB513F036F89DE8030000F02AFB65
:1002400000F04AFD1FBD10B500F0AFFD10BD00F07D
:10025000E6FD1146FFF7EDFF0CF020FD00F04AFF30
:1002600003B4FFF7F0FF03BC0BF0E2F90948804745
:1002700009480047FEE7FEE7FEE7FEE7FEE7FEE788
:10028000FEE7FEE7FEE7FEE704480549054A064BA0
:1002900070470000B56F000889010008C8F401200C
:1002A000C8FC0120C8F60120C8F60120704770B5CF
:1002B000A0FB01400021D4F1FF3271EB00003CBFF4
:1002C000002070BD204600F014FB05001CBF214635
:1002D00000F038FA284670BD70B50446051F00F0DE
:1002E000BDFA0068002C14BF446870BD002C18BF14
:1002F000AC423CBF20466468F8D301680A18AA42A1
:1003000018BF456003D12A6805461144016028687A
:100310004119A1421CBF6C6070BD616869602168B1
:100320000844286070BD53EA020C00F069802DE992
:10033000F04B4FF00006002B1FBFB3FA83F503FA12
:1003400005F424FA05F65E4012BF1643B2FA82F5B0
:1003500002FA05F4C5F120051EBF22FA05FC44EAA5
:100360000C04203556EA044C4FEA144418BF641CB0
:100370004FF000084FF00009904271EB030C39D3A5
:10038000002919BFB1FA81F701FA07F6B0FA80F730
:1003900000FA07F6C7F120071EBF20FA07FC46EA5D
:1003A0000C062037B6FBF4FCA7EB0507103F07F05F
:1003B0001F0BCBF120062CFA06F60CFA0BFB44BF00
:1003C000B3460026202FA4BF5E464FF0000B5BEA29
:1003D000060C08BF4FF0010B19EB0B0948EB0608A0
:1003E000ABFB027C06FB02CC0BFB03CCC01B71EB0E
:1003F0000C01C1E70B46024641464846BDE8F08B7A
:1004000013B5084318BF4FF0FF300146AFF300802B
:10041000BDE81C40704700000FB41CB5074B06AA8E
:100420007B4469460090059800F0F1FA0020694687
:1004300000F000FB1CBC5DF814FB0000110600007E
:1004400070B5044685690068C10601D5302600E014
:100450002026C00707D070BDD4E90121304690475F
:10046000206A401C20626D1EF6D570BD70B5044632
:1004700085690078C00707D170BDD4E9012120202B
:100480009047206A401C20626D1EF6D570BD0000AA
:100490002DE9F0410646002410687529314616A55D
:1004A00010D0AFF30080002802DA404213A507E025
:1004B00031688A0701D512A502E0490704D511A5C4
:1004C000012401E0AFF3008000210A2206F1240795
:1004D00009E0B0FBF2FCB0FBF2F302FB1C00303091
:1004E00078541846491C0028F3D123462A46304642
:1004F000BDE8F04100F02CBA000000002D00000023
:100500002B000000200000002DE9F05F8946044622
:100510004FF0000ADFF824B1FB44C0F820A02046C9
:10052000E168884700287DD0252806D0D4E901213C
:100530009047206A401C2062F1E700255F46204674
:10054000E16888472028064607DB312E05D2B81916
:1005500010F8200C08B10543F1E7A80701D525F0F4
:100560000405C4F81CA00027C4F818A02A2E09D03E
:10057000304612F082FE38B304EB8708303EC8F8EC
:10058000186019E059F8041B204604EB87029161BA
:10059000E1688847012F064618D1E069002820DA73
:1005A00025F020051DE0D8F8180000EB800006EBD0
:1005B00040003038C8F818002046E16888470646F1
:1005C00012F05BFE0028EED1012F0AD02E2E08D1AA
:1005D0002046E16888477F1C0646022F45F020052B
:1005E000C4DBA069002803DA404245F00105A061A0
:1005F000E80701D025F01005A6B1A6F141001928A1
:1006000002D8203645F400654A463146204625602A
:100610004D46FFF709FE60B1012807D0ED1D25F01A
:10062000070000E007E000F1080978E705F1040998
:1006300075E730467AE7206ABDE8F09FA22D0100F9
:1006400010B5044603E012F01FFE401C09D014F858
:10065000010B05490028F6D1BDE810400A2012F030
:1006600013BE4FF0FF3010BDF4C0012010B5431C85
:1006700002E010F8011B71B18107FAD14FF001328D
:1006800002C88C1A8C4314EAC211F9D0C01A0A06A7
:1006900003D0C01E10BDC01A10BD0A0401D0801EB8
:1006A00010BD0902FCD0401E10BD032A40F230806C
:1006B00010F0030C00F0158011F8013BBCF1020FA3
:1006C000624498BF11F801CB00F8013B38BF11F824
:1006D000013BA2F1040298BF00F801CB38BF00F83B
:1006E000013B11F0030300F0AA81083AC0F0088032
:1006F00051F8043B083A51F804CBA0E80810F5E79C
:10070000121D5CBF51F8043B40F8043BAFF300807E
:10071000D20724BF11F8013B11F801CB48BF11F8F3
:10072000012B24BF00F8013B00F801CB48BF00F8C3
:10073000012B704702F0FF0343EA032242EA024220
:1007400000F024B84FF000020429C0F0128010F02D
:10075000030C00F01B80CCF1040CBCF1020F18BF9D
:1007600000F8012BA8BF20F8022BA1EB0C0100F030
:100770000DB85FEAC17C24BF00F8012B00F8012B03
:1007800048BF00F8012B70474FF0000200B5134638
:1007900094469646203922BFA0E80C50A0E80C50A1
:1007A000B1F12001BFF4F7AF090728BFA0E80C5052
:1007B00048BF0CC05DF804EB890028BF40F8042B4B
:1007C00008BF704748BF20F8022B11F0804F18BFB8
:1007D00000F8012B7047000030B44FF0013C50F896
:1007E000042B51F8043BCCFA52F4D51A20D1FCB9B1
:1007F00050F8042B51F8043BCCFA52F4D51A17D117
:10080000B4B950F8042B51F8043BCCFA52F4D51A81
:100810000ED16CB950F8042B51F8043BCCFA52F4C9
:10082000D51A05D1002CDAD030BC4FF0000070474B
:1008300029BAB1FA81F111F01801D1F120008440F8
:10084000F2D1CA40CB4012F0FF0213F0FF0330BCDC
:10085000D01A70477047704770477047004870471C
:10086000A4C10120704770477047704738B50446EF
:100870000A4600206946AFF30080002808BF38BD53
:1008800002460099204600F01BF9012038BD0120E6
:1008900000F0BEBAF8B5AFF30080054600200C4664
:1008A0000C2000BF0646A819A0420DD93246694661
:1008B0000020AFF30080070008BF00F0A9FA0098FD
:1008C000A04218BF0546C419FFF7C8FF05600746D8
:1008D000F01D20F007004619284600F0EBF8B4425E
:1008E00008BFF8BDA21B31463868BDE8F84000F0EB
:1008F000E7B870B50646FFF7B1FF056806F10B00D3
:1009000020F00704B4429CBF002070BD2B466A68EB
:10091000BAB11068A04210D304F1080188423CBF6C
:100920005068586007D35168101941601168091B5D
:10093000016058601460101D70BD13465268002A93
:10094000E7D121462846FFF791FF0028DED170BD90
:100950002DE9F0470D4699469246044600F12408D9
:100960000168880604D5E06921F01001216000E0EB
:100970000120A84201DD471B00E00027A1697A1988
:1009800002EB0900081AA0612078C00602D42046B4
:10099000FFF756FD002608E0D4E901211AF8060009
:1009A0009047206A401C761C20624E45F4DB20787C
:1009B000C0060AD52046FFF743FD06E0D4E9012131
:1009C00030209047206A401C2062381EA7F10107A2
:1009D000F4DC07E0D4E9012118F805009047206A0B
:1009E000401C2062281EA5F10105F3DC2046FFF71C
:1009F0003DFD2078000602D50220BDE8F0870120E9
:100A0000FBE7000001694A1C02610878704700B5E5
:100A10008FB0CDE901310021059105497944CDE937
:100A2000031011466846FFF76FFD0FB000BD0000D0
:100A3000E5FFFFFF0A6802F8010B0A60704710B576
:100A4000203AC0F00B80B1E81850A0E81850B1E887
:100A50001850A0E81850203ABFF4F5AF5FEA027CC6
:100A600024BFB1E81850A0E8185044BF18C918C0F6
:100A7000BDE810405FEA827C24BF51F8043B40F897
:100A8000043B08BF7047D20728BF31F8023B48BF7C
:100A900011F8012B28BF20F8023B48BF00F8012BBA
:100AA00070470000004870479CC101200048704713
:100AB0009CC1012000210160416070470C207047FB
:100AC000034640688C46002818BF88423CBF034656
:100AD0004068F8D318681844884207D00CF1030026
:100AE00020F00700001D411A521A0146081D0A6035
:100AF000FFF7F2BB2DE9F05F054617460C46C868C4
:100B000020F4201040F48000C860800602D508461A
:100B100000F031FAE06841F282014FF0FF3A014003
:100B2000022903D0204600F0C3F9B9E000F42041C7
:100B3000B1F5004F0FD1C00306D56168E06A884265
:100B400000D80846606006E02069E0626060606985
:100B50000AF070FDA061A0680022EEB200280DDA54
:100B6000E1688B050AD4C043A06041F49030226054
:100B7000E0606068411C61600670AAE0E068914630
:100B8000226040F40050E060206978BB60690AF0A0
:100B900053FD04F124054FF00108A8B1A08910F419
:100BA000407F08D0E069FFF7A4FE206118B1E0683B
:100BB00040F4006017E0C4F81C802561E06820F470
:100BC000407040F480600EE0E069FFF792FE00287C
:100BD0002061F0D0E06840F4006010F4407FE060F5
:100BE00002D140F48070E06020696060E0682569AF
:100BF0006FF0010BC1051ED56168E06A884200D81C
:100C00000846411B04D02246284600F05BF9E8BBA9
:100C10001FB1E562C4E9015959E0681CE0626060F7
:100C2000E069401EA060E06840F48030E06030463B
:100C30002E70BDE8F09F17B100F480320AE06068C2
:100C4000411C61600670E0680A2E40F48030E0606C
:100C500006D00022E16A6068814203D90B4602E0B7
:100C60000122F7E70346B4F80CC05B1B5FEA4C5C5B
:100C700004D4D4F81CC09C4500DD02B3814200D8E6
:100C80000146002BA1EB0008E56200E008E0C4E9A2
:100C9000015907DD22461946284600F013F908B12C
:100CA0005046C6E7B8F1000F09D0A169E56265605A
:100CB000A1EB0800A061E06840F01000E06047B1DF
:100CC0006168A069E562491B08446560A0615846F7
:100CD000AFE73046ADE7000010B542485421FFF7BA
:100CE00053FD41485421FFF74FFD40485421FFF781
:100CF0004BFD3F493B483C4A3F4B08603D490A6039
:100D00003A491960531C0365481C106501200865A9
:100D10003B48344A39A1784400F04EF920B93848AC
:100D200078440A3800F0F4F937482F4A35A178445E
:100D300000F042F920B9344878440A3800F0E8F964
:100D400032482A4A2FA1784400F036F920B92F48BA
:100D500078440A3800F0DCF940232248DC00002106
:100D6000224600F081F820B125487844543800F03C
:100D7000CFF91D4822464023002100F075F820B12C
:100D800021487844543800F0C3F91848224610230B
:100D9000002100F069F8002806D01C487844BDE81E
:100DA0001040563800F0B4B910BD104870B5006D51
:100DB00020F001040B4800F077F90B4800F074F9BB
:100DC0000A4800F071F909E0206D20F00105204685
:100DD00000F06AF92046FFF77FFA2C46002CF3D189
:100DE00070BD0000A0C00120F4C0012048C1012056
:100DF00000C0012004C0012008C0012072000000D2
:100E0000E625010077000000D5250100AE25010090
:100E100010B500F085F9BDE8104000F074B97546D2
:100E2000FFF740FEAE4605006946534620F0070036
:100E3000854618B020B5FFF727FABDE820404FF0EF
:100E400000064FF000074FF000084FF0000BAC46D3
:100E5000ACE8C009ACE8C009ACE8C009ACE8C0091E
:100E600021F007018D46704770B5C468A50713D0FF
:100E7000650211D4B2F5807F09D0B2F5007F06D0AB
:100E8000B2F5806F08D1012300F1240106E05D1E58
:100E90006FF07F46B54201D3012070BD0161C3618F
:100EA000416024F470611143C160002070BD0000F6
:100EB000C16821F4001141F08001C160002181600E
:100EC000016070472DE9F74F15460C464FF0FF3B88
:100ED0003848D768D2F814A0074209D05046A9690B
:100EE0000AF0E2FB002819DB3248C0430740EF60FC
:100EF0004FF000496FF000484C4501D3464600E0F2
:100F0000264600993B46504632460AF0D1FBA96975
:100F100020F00042B21A1144A96128B12846FFF717
:100F2000C7FF5846BDE8FE8FA41BE5D10020F9E7B6
:100F300070B504460569C06A6168884200D80846F1
:100F4000E16821F42011E160C90312D5A84208D05C
:100F50002246411B2846FFF7B5FF10B14FF0FF3086
:100F600070BD0020E562C4E90150E06820F48030E3
:100F7000E060002070BD10B50446C06820F020007D
:100F8000E060A16AA06988420DD02046FFF7D0FF3B
:100F9000E06820F4405040F01000E060A06AA061DA
:100FA0002069E062606044F24001E0688843E060EC
:100FB00010BD0000100002002DE9F0410C4616465D
:100FC000070047D0104600F06FF82078611C6128B8
:100FD0000AD0722802D077283CD102E001250024F3
:100FE00005E00225042402E0082448F2020511F875
:100FF000010B2B2806D0622809D011F8010C7428A7
:101000000AD00BE045F0030544F00204EFE745F099
:10101000040544F00104EAE744F010043846214690
:101020000AF012FB411C15D00021316171604FF4B0
:101030000071F560F1617061200704D5304602222D
:10104000002100F095F8306D40F001003065304629
:10105000BDE8F0810020FBE72DE9F0410D46064692
:10106000104C206DC10704D0410804D020F00104C9
:10107000F7E722460EE05420FFF73BFC07000ED0B6
:10108000206D47F001010843542120653846FFF7E1
:101090007BFB3A4629463046BDE8F0418CE700200C
:1010A000D6E70000A0C001202DE9F04704464FF02C
:1010B000FF380026C568D4E90497A80718D0204651
:1010C000FFF736FF38460AF0A9FA002800DA46464C
:1010D000280502D54846FFF7FFF84C212046FFF7C8
:1010E00053FB206D20F0010020653046BDE8F087FD
:1010F0004046FBE710B50446AFF300802046BDE84C
:101100001040FFF7ADB8002801D00AF091BA70473F
:1011100010B500F0C3F8BDE81040FFF7F4BF0000C1
:1011200010B5012805D0002103A000F09DF8012092
:1011300010BD09A1F8E7000053494752544D454DF1
:101140003A204F7574206F662068656170206D6568
:101150006D6F7279000000003A2048656170206D63
:10116000656D6F727920636F72727570746564005B
:101170002DE9F041044616460D464769007B80077D
:101180002ED038460AF058FA50BB3EB3012E02D09A
:10119000022E25D104E0204600F09AF805441DE017
:1011A00038460AF047FAE168002841F01001E16092
:1011B00005DA2046FFF77CFE0120BDE8F081C90377
:1011C0000BD56268E16A914200D81146A2691144C8
:1011D0002269891A814200DD08460544002D01DAA2
:1011E0000220EAE7E16A6068E268814206D2910380
:1011F000E06203D522F4003141F01002A669002715
:10120000AE4213DCE16A814201D90B4600E003469D
:1012100003EB060C2369ACEB030CAC4506DD814205
:1012200001D98C4600E084469C4505D1A760276023
:1012300042F02000A5620DE0AD1BE669AE1B8142C5
:10124000A66000D90846C01A281A206058196060A4
:1012500022F0200003490840E060002084F8487034
:10126000ABE70000BFCFD7FF70B505460C460A209C
:1012700000E06D1C0AF03EFA35B128780028F8D15C
:1012800002E0641C0AF036FA14B120780028F8D184
:10129000BDE870400A200AF02DBA000010B50146E2
:1012A00002A0FFF7E1FF012010BD000053494752A3
:1012B000545245443A2052656469726563743A2019
:1012C00063616E2774206F70656E3A200000000025
:1012D00010B50146C268900703D0900607D5886A0A
:1012E0000AE0FFF7E3FB01210160881E10BD8B6956
:1012F000486818440B69C01A91F848301BB191F83E
:101300004910401A10BD1103FCD50028FADD401E1B
:1013100010BD00000146C06B036C026C13F0500F4F
:1013200008D0D20648BF00F019B9806B026D08469C
:10133000104700BF42F40071016401688A6812F02E
:10134000405F01D000F006B98269002AFAD1CA6A6A
:1013500012F4700F02D08A685205F3D44A6822F062
:1013600020024A60016C21F480710164016CC9049F
:1013700048BF00F0EFB8016C41F00101016400F0DA
:10138000E9B80000C06B40210164416C41F00401E8
:10139000416400F0E3B80000C06B00F0DDB800006D
:1013A000FEE700004DF25800C2F2010000F02EBB33
:1013B0004DF28410C2F2010000F028BB4DF2E8109B
:1013C000C2F2010000F022BB4CF6F470C2F2010040
:1013D00000F01CBB4DF2BC00C2F2010000F016BBD5
:1013E0004DF22010C2F2010000F010BB7047000067
:1013F00043F61440C4F201000168C90458BF7047A5
:101400004FF4805101604CF20820C2F201000068E4
:101410000CF0CAB972B600BFFEE7000070B581B02B
:1014200000220092C26B012A02D1022001B070BDDD
:10143000D1F800E001221FFA8EFC4FEA4C03C26390
:101440000EEB4E0213FA8EF31024BEF1090F88BF83
:10145000A3F11E0288BF0C24036807251E5995407E
:1014600026EA05051D518D681E5905FA02F2324320
:101470001A514968062907D801EB81014A1F19460C
:1014800051F8345F0FE000BF0C2901EB810105D852
:10149000A1F12302194651F8305F04E0A1F14102A5
:1014A000194651F82C5F1F24944025EA04040C606F
:1014B0000CFA02F20C6842F2043CC4F2010C224322
:1014C000ACF54174A3420A603ED1BEF1120F07D1C0
:1014D000DCF8001041F48001CCF8001034E000BFCB
:1014E0002EF0010110292FD1DCF80010BEF1100FF1
:1014F00041F40001CCF8001026D14CF26401C2F294
:10150000010109684DF68362C4F21B32A1FB02128D
:10151000910C01EB8101490000910099A1B1009962
:1015200001390091009979B1009901390091009930
:1015300051B1009901390091009929B100990139FF
:10154000009100990029EAD10021C163002001B077
:1015500070BD000070470000704700007047000039
:10156000002804BF0120704710B5016C00293DD050
:10157000016CC90644D4016C41F20212914302315C
:1015800042F204320164C4F20102116821F44031D4
:101590001160136890E812102343D0F810E0136034
:1015A0004A68012422F480724A604A68C0F60074D6
:1015B00042EA0E224A604A6822F040724A604A6853
:1015C00042EA0C024A608A6822F400628A60C268B9
:1015D0008B681A438A60826A8B68A24223F0706328
:1015E0008B608B680ED123F0405214E0044600F06B
:1015F00063F8204600216164E163016CC906BAD535
:10160000012152E01A438A608A6822F040528A60BF
:10161000C26A8B681A438A608A6822F002028A6072
:101620008A688369046A42EA43028A604A688CB124
:1016300042F400624A604A684EF2000322F46042BB
:101640004A60426ACFF6FF734C6803EB4232224392
:1016500002E000BF22F400624A60CA6A40F2000C55
:1016600022F47002CA62C369D0F814E0046BCFF6AA
:10167000F07CCA6A0CEB03531A43CA628A680123DE
:1016800022F400728A608A6842EA44228A608A6888
:1016900022F480628A608A6842EA8E228A6000218F
:1016A0004164026C63F3010202640022C263BDE87C
:1016B000104008467047000070B586B0044642F2FC
:1016C00000002168C4F20100002681420596CDE9A0
:1016D00003660296019601D006B070BD43F6300154
:1016E0000096C4F202014A6900F5644042F4807237
:1016F0004A614A6902F480720092009A00960A6870
:1017000042F002020A60096801F0020100910099AA
:10171000012101910321CDE9021601A900F05CFB32
:101720004CF6907546F21040C2F20105C4F2020078
:101730004FF48061C5E9000605F110004FF4006226
:101740004FF400534FF4807C80E80E102846C5E922
:101750000266C5E9086600F031FA002818BFFFF7F5
:1017600059FEA563EC6306B070BD0000B0B582B051
:1017700000230193C36B012B02D1022002B0B0BD44
:101780008E4601230168C3638B689446DB072AD128
:101790008B684DF6836443F001038B604CF2640365
:1017A000C2F201031B68C4F21B34A3FB0434A30C74
:1017B00003EB43030193019BABB100BF019B013BD2
:1017C0000193019B7BB1019B013B0193019B53B1B1
:1017D000019B013B0193019B2BB1019B013B0193B9
:1017E000019B002BEAD18B68DB0503D58B6823F4C2
:1017F00080738B608C68036CE4070BD143F010019D
:10180000016444300121026811430160002002B0EC
:10181000B0BD00BF40F20174A34303F580730364BD
:101820004B685B0504D5036C012464F30D3303643A
:10183000046C0023E4044FF0000444BF446C24F023
:1018400006044464C363836B41F2153441F2993258
:10185000C0F60004C0F60002C3E9104241F285322E
:10186000C0F600021A656FF022020A604A6842F26E
:10187000043442F080624A608A68054642F480720D
:101880008A604C31184672466346C4F2010400F087
:101890003FFA21682868C90606D0A4F5417188423C
:1018A00026D0002002B0B0BD42F20001C4F2010116
:1018B000884215D042F20021C4F2010188420CD0C6
:1018C00042F20011C4F201018842EAD12168C9063E
:1018D00006D0A4F582718842E3D12168C906E0D41C
:1018E00050F8081F11F0405FDBD14FF080418AE7CC
:1018F0004FF60451CFF6FF71615811F0405FD0D11F
:1019000008304FF080417EE7002804BF0120704777
:10191000816819B1012181600020704710B5002154
:101920004160044600F008F82046BDE8104001215F
:10193000816000207047000043F63001C4F20201CC
:101940000068A1F50362904218BF704781B0002083
:101950000090086840F480500860086800F48050E7
:101960000090009801B0704770B5C66D044600F055
:101970000FFBA16B022925D105462068616C026826
:1019800022F016020260426922F08002426109B927
:10199000E16C19B1016821F008010160016821F0D2
:1019A0000101016020680068C00711D000F0F0FA62
:1019B000401B0628F6D32020A0650320A063002149
:1019C000616370BD8020A06501200021616370BD4E
:1019D000206E3F2101FA00F0B0600120A0630020DA
:1019E0000021616370BD0000816B022908D10521CF
:1019F00081630068016821F00101016000207047E7
:101A00008021816501207047806D7047F0B581B0FD
:101A1000002100914CF26401C2F201010B68D0E98F
:101A2000176148F2B51537680822C1F64E358A406D
:101A30003A42A3FB05350CD003681C68640708D53F
:101A40001C6824F004041C60B260826D42F0010244
:101A5000826501228A403A4208D003685B691B060E
:101A600004D5B260826D42F00202826504228A408F
:101A70003A4208D003681B689B0704D5B260826DA8
:101A800042F00402826510228A403A4219D001686D
:101A90000B681B0715D5B2600B680A685B0309D495
:101AA000D20509D40A6822F008020A60416C29B9FB
:101AB00007E000BF11033BD4416C11B104468847D5
:101AC0002046026E202101FA02F33B423DD001681C
:101AD0000F68FF0639D5B360876B0B68052F19D1E6
:101AE00023F016030B604B6923F080034B61436CBA
:101AF0000BB9C36C1BB10B6823F008030B603F21CB
:101B00009140B16001218163416D0022002942634F
:101B10004ED151E00A685B030ED4D20510D40A6896
:101B200022F010020A60012181630021416307E075
:101B3000C16C0029C2D1C4E7110301D4816C00E05B
:101B4000016C11B1044688472046816DA1B3816DB7
:101B5000C9072BD0052181630168AA0A0B6823F00D
:101B600001030B60009B0133934200931AD80B686A
:101B7000DB0717D0009B01339342009312D80B6808
:101B8000DB070FD0009B0133934200930AD80B6808
:101B9000DB0707D0009B01339342009302D80B6808
:101BA000DB07DFD10121816300214163016D19B1A0
:101BB00001B0BDE8F040084701B0F0BD2DE9F041AB
:101BC000044600F0E5F9CCB105460220A0630020F0
:101BD00021686063086820F00100086021680868D7
:101BE000C0070FD000F0D4F9401B0528F6D9032513
:101BF00020230320A365A563BDE8F0810120BDE893
:101C0000F08100BF086848F23F02CFF21002D4E929
:101C1000013500EA020C04F10C0898E8C10143EA1E
:101C20000C032B431843D4E9072E304338431043A9
:101C3000626A40EA0E00042A40EA08031CD1206BC5
:101C4000D4E90A2E40EA0E00184308604869BEF144
:101C5000000F20F0030040EA020040F0040C11D015
:101C6000B8F5005F34D0B8F1000F43D1022A44D058
:101C7000012A39D032B940E00B60486920F00700F2
:101C800040EA020C01F0F8004AF6AB221038CAF61E
:101C9000AA22A0FB02231A0943F2C043C1F814C0D0
:101CA000C0F601039A5C40F2FF335F284FF03F001B
:101CB00021EA030100FA02F088BF0431C4E91712D7
:101CC0008860012500230020A365A563BDE8F0819D
:101CD000032AD7D8012540230120DFE802F0030EB4
:101CE000030500BF86E700BFAEF1C070B0FA80F018
:101CF000400904E0032A04D3C4D1CEF300600028D5
:101D0000C0D0012540230120A365A563BDE8F08173
:101D1000D0F834C0BCF1010F04BF0220704770B589
:101D20004FF0010CC0F834C0D0F85CE0D0F838C0F7
:101D3000BCF1010F38D14FF0020CC0F838C04FF0A1
:101D4000000CC0F858C0D0F800C08468456C006E24
:101D5000DCF80060402C26F48026CCF80060CCF83B
:101D600004300B4604BF13460A463F2101FA00F037
:101D7000CCF80830CCF80C20CEF80800DCF80000D5
:101D800040F01600CCF800002DB1DCF8000040F067
:101D90000800CCF80000DCF8000040F00100CCF8AE
:101DA0000000002070BD00BF00214163022070BD13
:101DB000B0B5044600F0ECF805464CF20C00C2F257
:101DC00001004068611C18BF044400BF00F0E0F847
:101DD000401BA042FAD3B0BD2DE9F04F83B000F113
:101DE000200200F13E4741F60045009207F1FF77DF
:101DF000C4F2020508224FEAB726A84208BF07220C
:101E000000254FF000084FF00009072E38BF4FEAB9
:101E1000B72201920AE000BF09F1010908F10208A6
:101E2000B9F1100F05F1040500F0A2800F6801223E
:101E300002FA09FE17EA0E0AEED0D1F804C0032216
:101E40000CF003077E1E02FA08F4012E6FEA040B61
:101E500012D88468CE6804EA0B0406FA08F6344304
:101E60008460446824EA0E06CCF3001404FA09F4F2
:101E70002643466004E000BF032F01D103271EE084
:101E8000C6688C6806EA0B0604FA08F42643022F9B
:101E9000C66014D16FF00302009E02EA590756F89B
:101EA00007C005F01C040F220B69A2402CEA0202B5
:101EB000A3401A43F251D1F804C00CF003070268A2
:101EC00007FA08F302EA0B021A431CF4403F0260CF
:101ED000A2D0002243F644030292C4F202031A681D
:101EE00043F6004442F480421A601A68C4F20104C6
:101EF00002F480420292029A29F003024FF6084C43
:101F00002244CFF6FF7C52F80C3005F00C070F2668
:101F1000BE40B343019E06FA07F73B4342F80C303C
:101F2000A2684B6842EA0A0743F60C4CDE0258BF2F
:101F300022EA0A07A760C4F2010CDCF800209E0226
:101F400042EA0A0758BF22EA0A07CCF80070626822
:101F50009E0342EA0A0758BF22EA0A07676022681E
:101F6000DB0342EA0A0758BF22EA0A07276053E761
:101F700003B0BDE8F08F00000069084018BF0120E1
:101F800070470000002A08BF090481617047000003
:101F90004FF2CC10C2F2010000687047D0F8200464
:101FA00006F0A6BED0F8200406F0B8BE006807F020
:101FB000B3BC0000006807F0B3BC000000EB811068
:101FC000C06C704700EB8110806B7047D0F8142410
:101FD000012A04BF0220704710B502680123C0F82F
:101FE00014340446104607F0ABFC0020C4F8140477
:101FF00010BD00002DE9F04F83B00446D0F8140462
:10200000012803D1022003B0BDE8F08F012004EBCA
:10201000811BC4F814040BF8143F02F07F008BF806
:102020000200D009DDE90DA58BF803002068002629
:1020300098468BF8056089468BF801108BF812A042
:10204000ABF806601746ABF8106007F069FCBAF110
:10205000010F0DD1BC2D294628BFBC2100280C98AA
:1020600018BF2946012808BF0D46014601E000BF00
:102070000C9920688BF80410ABF81450CDE9001AC5
:1020800049463A464346029507F01CFDC4F81464DD
:1020900003B0BDE8F08F0000D0F8200406F0BEBE0B
:1020A0002DE9F0410DF1180E9EE84041099D00EB2D
:1020B00081178C4607F11401FA75002E87F8263037
:1020C00006BF4D71032502258D75032B4FF00005CA
:1020D00017D80027DFE803F00614020252B191F886
:1020E000282009E0012E0CD1D2B18A79012AF6D03C
:1020F00007E000BF91F82920002A18BF01225700ED
:102100008F7503688279C1F81880C1E908E581F804
:1021100001C08D631846CD63BDE8F04107F06ABD8C
:10212000BEF1000F06D091F82920002A18BF02271F
:10213000E6E700BF012281F829200227E0E700003E
:102140002DE9F04F83B006680446304607F0F4FBF3
:10215000012840F08F84206808F060F8002800F023
:102160008984206808F05AF801462068890244BF33
:102170004FF40011416108F051F801462068C9028E
:1021800044BF4FF48011416108F048F801462068CF
:10219000490144BF4FF08061416108F03FF80146BA
:1021A0002068890744BF0221416108F037F80146E1
:1021B0002068890018D54FF000514161D6F84014CD
:1021C000C90711D13046102107F046FB304607F011
:1021D000E3FA607A022803D12068012107F0F6FFB4
:1021E0002046FFF7DFFE206808F018F82568C001D8
:1021F0001CD5D5F840040290D5F840040190019810
:1022000020F02E0001900298800700F1DD830298F3
:10221000000700F1E7830298800603D5019840F09B
:10222000200001900198C5F840042568284607F071
:10223000F5FF000702D4206806E000BF204600F04A
:10224000BBFC20680821416107F0E8FF01462068D7
:10225000890140F1958307F0C9FC6179002900F0FC
:102260008B83804606F5A06B4FF0000A4FF0000903
:10227000CDF800B013E000BF0AEB07004FF4007187
:10228000C0F80815206800BF314607F059FB607997
:1022900009F1010981450AF1200A80F06D8309F0F6
:1022A0000F0028FA00F0C007F1D05BF80A50276849
:1022B0005FFA89F63846314607F0A8FF29044FEA4D
:1022C000407065D4002800F181802068314607F015
:1022D0009DFF800600F18A802068314607F096FF56
:1022E0008005C9D42068314607F090FFC00740F050
:1022F000B1802068314607F089FF400600F1C281B5
:102300002068314607F082FF000700F1EB8120686A
:10231000314607F07BFFC00600F1EE8120683146B0
:1023200007F074FF000600F189822068314607F04B
:102330006DFF400500F196822068314607F066FF88
:102340008007A4D50AEB07010220C1F8080504EBB9
:102350004A00026D013A082A99D8DFE812F0B50266
:102360000900AB02D902EB02EF020B0009000B00DF
:102370008DE700BF426C02230132032A03654264E9
:10238000C0F0BC82002104224164C26428E200BF84
:10239000002827D42068314607F038FFC00551D403
:1023A0002068314607F032FF00074FD420683146DD
:1023B00007F02CFF40056FD42068314607F026FF58
:1023C000000678D5072180206AE000BF0AEB0700ED
:1023D0000421C0F80815206804EB4A0107220A65A9
:1023E00052E700BF072104205AE000BF0AEB0700B4
:1023F0002021C0F8081504EB4A05687E012809D1A0
:1024000000206876206802210322C5E913123146B4
:1024100007F096FAA87E01287FF439AFE87E0028FD
:102420007FF435AF95F82600032101281CBF012059
:10243000E87620682965314607F082FA0020686452
:1024400025E700BF08214FF4807029E0062108200D
:1024500026E000BF04EB4A0520680021696431468C
:1024600007F0D4FE400606D5012068760AEB070087
:102470004021C0F80815E87E002800F029810020DE
:10248000E8760AEB0701D1F8042501F5A06022F4F3
:102490008032C1F804251FE109214FF4806000BF9C
:1024A0000AEB0702C2F8080504EB4A02206811652E
:1024B000314607F045FA2068314607F0A7FE01468D
:1024C0002068890536D4314607F0A0FEC0073BD10D
:1024D0002068314607F09AFE800600F17B80206874
:1024E000314607F093FE800700F19E802068314658
:1024F00007F08CFE400600F1D9802068314607F0D5
:1025000085FEC0067FF5C3AE04EB4A0595F82600AC
:10251000002818BF022840F06981A07900284FF0F8
:102520000000686400F06681E87E012800F06281A6
:1025300066E100BF314607F003FA0AEB07004FF4EB
:102540000071C0F80815A2E60AEB070B2020CBF8B3
:10255000080504EB4A07F87E012807D10020F87629
:10256000DBF8040520F48030CBF80405A07930B105
:10257000386BDBF810156FF3DF41401AB8630121A7
:10258000002039657864CBF8081597F826000328F1
:102590000BD8DFE800F0032F032F00BF206831467F
:1025A00007F0CEF91020CBF80805A079012831D129
:1025B000B86B398DDDF800B008440138B0FBF1F09C
:1025C000C0073FF464AE97F83C0080F0010087F844
:1025D0003C005CE60AEB07002021C0F8081504EB7C
:1025E0004A01887E01287FF452AE0120C876206817
:1025F0000322F4E6DBF80005314640F00050CBF84A
:1026000000050120F86420460122FFF745FDA0796E
:102610000128CDD097F83C00DDF800B080F0010033
:1026200087F83C0033E600BF0AEB07010220C1F83F
:10263000080504EB4A00026D013A082A00F2CF8037
:10264000DFE802F0BE068AAE72C208C6080000BF0C
:102650001DE600BF426C02230132032A0365426477
:10266000C0F09A80827E012A4FF00002426440F05E
:10267000B480A0F81B20D1F8042522F48032C1F8E0
:102680000425AAE004EB4A01887E002200284FF0CE
:102690000500086504BF0120487620684A64314679
:1026A00007F04EF90AEB070040214AE70AEB070062
:1026B0004021C0F8081504EB4A00817E00294FF044
:1026C0000501016504BF002141642068DCE500BF0D
:1026D0000AEB070000F5A0600121816020682965F0
:1026E000D2E500BF0AEB07000821C0F808152068F2
:1026F00004EB4A01062272E604EB4A00417E002206
:1027000000294FF004014264016504D1017E0029D3
:1027100004BF012141762068314607F011F90AEB28
:10272000070010210DE700BFC27E0223012A0365C6
:1027300055D190F82620032A36D1826C0132032A23
:102740008264C0F0B580426C00238364022AC376A1
:102750009CBF012202778EE7C27E0223012A036515
:102760003DD1C364D1F8042542F48032C1F8042578
:10277000D1F80C2542F04002C1F80C25D1F80C2507
:1027800022F02002C1F80C2590F8262042F0020227
:10279000022A0ED023E000BF90F8262004E000BFFC
:1027A00090F826200223036542F00202022AC36445
:1027B00015D1D1F8002563F39F72C1F800250EE012
:1027C00002210165012109E002210165052105E0E1
:1027D000416C02220131026541640421C164C26C72
:1027E00020463146FFF758FC51E500BF032807D1CA
:1027F00000206864206804212965314607F0A0F8AC
:10280000E87E012812D10020E8760AEB0701D1F812
:10281000040520F48030C1F80405D1F80C2501F539
:10282000A06042F02002C1F80C2503E00AEB07008B
:1028300000F5A0601021816029E500BFA079F8B102
:1028400004EB4A00416C01310329416422D3002189
:1028500041640421C164204631460422FFF71CFC78
:1028600022E000BF04EB4A01206809220A653146D4
:1028700007F066F80AEB07004FF4806161E600BFDD
:1028800004EB4A01206807220A65314607F058F830
:102890000AE000BF0222C2640AEB0700D0F800156C
:1028A00062F39F71C0F800150AEB0700802148E62B
:1028B000C36494E7C17E01294FF0020101657FF4F2
:1028C0008EAF0222C2648BE70221016590F82610C8
:1028D000012201F0FE010229C2647FF481AFA179D7
:1028E000012931D0002943D190F83D10DDF800B026
:1028F00081F0010180F83D1072E700BF0222C2643E
:10290000D1F8000562F39F70C1F8000568E700BFC9
:10291000C37E0222012B0265C2647FF461AF0022F4
:10292000C276D1F80405022220F48030C1F80405F3
:1029300056E700BF0222C0E9132251E70221052217
:102940000165C2644CE700BF416B89B1028D11443F
:102950000139B1FBF2F1C90705D090F83D1081F0C3
:10296000010180F83D10DDF800B0012238E700BF1A
:10297000DDF800B034E700BF20684FF0007141611E
:1029800007F04CFCC00675D52568A86920F010003A
:10299000A861286A00F4F011B1F5802F65D1C0F369
:1029A0000A16002E61D000F00F0804EB8810C16AEF
:1029B00000295AD000F11407D7E9080232448242B4
:1029C00030D90420B86350E00298C00702D02046F6
:1029D000FFF7E4FA019840F0020001900298000726
:1029E0007FF519AC019840F008000190029840076B
:1029F00008D4204600F0D4F8029880063FF50EACCB
:102A0000FFF710BC607A022838D1029800F4C02188
:102A10002068B1F5802F14BF0121022107F0D6FBF9
:102A200033E000BF2846324607F0FCFBB869796AFC
:102A30003044B8618819786205EB4810D0F8101559
:102A4000BA8A964211D10022C1F6F87211400CD018
:102A500000F5A0600168022262F39F71016097F89F
:102A6000280080F0010087F828002068816941F083
:102A70001001816103B0BDE8F08F00BFE07901284B
:102A800004BF4EF66020C5F80404204600F08CF820
:102A9000029880063FF5C2ABFFF7C4BB002804BF15
:102AA00001207047B0B582B004460568D0F818041C
:102AB00028B90020C4F81404204600F035F803209B
:102AC000B5F1A04FC4F8180404BF0020A07120681D
:102AD00006F02CFE94E80F00257C009506F01CFD06
:102AE00030B101200221C4F8181402B0B0BD00BFFB
:102AF0002068012107F00CFC30B102210120C4F84C
:102B0000181402B0B0BD00BF94E80F00257C0095FA
:102B100007F0ECF9012100281CBF02210120C4F8B4
:102B2000181402B0B0BD0000B0B586B00068002136
:102B3000C4F2040100248842CDE90444CDE90244F2
:102B4000019401D006B0B0BD43F630050094C4F244
:102B50000205286801A940F002002860286800F0FA
:102B60000200009000984FF4404001900220CDE90F
:102B70000204032004900C20059040F20040C4F2AF
:102B80000200FFF729F90094286840F000502860FF
:102B9000286800F000500090009806B0B0BD00001A
:102BA000D0F8200406F062B9D0F8200406F062B92B
:102BB000006807F08DBB0000D0F8200406F0E8B8EC
:102BC000D0F81414012904BF0220704710B5016821
:102BD0000122C0F8142404460846012106F0AEFD87
:102BE000206806F0D1FD0020C4F8140410BD0000D8
:102BF000D0F81414012904BF0220704710B50168F1
:102C00000122C0F814240446084607F035FD0020D0
:102C1000C4F8140410BD0000002804BF0120704750
:102C2000B0B504460068D4E901124CF6CC43036009
:102C300045F25553036041608260FFF7A9F92168AE
:102C4000CA68920710D0054603E000BFC868800735
:102C50000AD0FFF79DF9401B21683228F6D3C868D7
:102C60008007F3D00320B0BD4AF6AA2008600020F8
:102C7000B0BD000001684AF6AA2200200A60704731
:102C80004CF20C004FF2CC11C2F20100C2F2010171
:102C900040680A68104408607047000080B543F639
:102CA0000040C4F20200016841F400710160016853
:102CB00041F480610160016841F48071016003208A
:102CC00000F0C0F80F2000F005F800F05DF80020DB
:102CD00080BD000070B586B0002543F64001019527
:102CE000C4F202010A68044642F480720A6009686C
:102CF00001A801F4807101910199694600F06CF915
:102D0000049E002E18BF012600F086F94DF683615F
:102D1000B040C4F21B31A0FB01014FF0FF3000EBCB
:102D200091414DF6243042F20002C2F20100C4F299
:102D3000000240F2E733C0E90021C0E90253056117
:102D4000856100F02DFD08B106B070BD4DF6243050
:102D5000C2F2010000F03EFE0028F5D12D2000F067
:102D600035F80F2C0CD82D202146002200F03EF81B
:102D70004CF20C010020C2F201010C6006B070BDE3
:102D8000012006B070BD000082B0002043F6400173
:102D90000190C4F202014A6842F480424A604A68E3
:102DA00002F480420192019A00900868002240F0EB
:102DB0008050086008680F2100F080500090009853
:102DC0006FF0010002B000F011B80000002848BF09
:102DD000704700F01F01012202FA01F14EF20012C9
:102DE0004009CEF2000242F82010704710B54EF6AE
:102DF0000C5CCEF2000CDCF80030C3F3022E8EF037
:102E00000704042C28BF0424BEF103034FF0FF3E47
:102E10000EFA04F438BF0023A14399400EFA03F3DD
:102E20009A43114300F00F0200F160430901043A94
:102E300003F564436244002848BF02F10C03197093
:102E400010BD00004EF60C51CEF200010A684FF69C
:102E5000FF031A4060F30A2242F0806040F0FD70E8
:102E60000860704770470000002804BF01207047C9
:102E70002DE9F04143F60808C4F202080446D8F8E8
:102E8000F8030D4600F00700814207D988F8F8538F
:102E9000D8F8F80300F00700A84277D1206881072E
:102EA00017D5410705D5D8F8001041F4E051C8F80E
:102EB0000010010705D5D8F8001041F46041C8F8AA
:102EC0000010D8F80010A26821F0F0011143C8F8F2
:102ED0000010C00740D1D8F8F80300F00700854281
:102EE00007D288F8F853D8F8F80300F00700A84292
:102EF0004CD12068410707D5D8F80010E26821F4CA
:102F0000E0511143C8F80010000708D5D8F80000B8
:102F1000216920F4604040EAC100C8F8000000F0D8
:102F2000A3F8D8F8001043F2CF22C1F30311C0F682
:102F30000102515C4CF2640220FA01F14CF20C00E7
:102F4000C2F201000068C2F201021160FFF7C2FE86
:102F50000020BDE8F08100BF6068811E022907D211
:102F600058F8081C89015CBF0120BDE8F08111E020
:102F7000012807D158F8081C89035CBF0120BDE86F
:102F8000F08107E058F8081C890703D40120BDE848
:102F9000F08100BFD8F8001021F003010843C8F801
:102FA0000000FEF7F5FF064641F28837D8F800002A
:102FB000616800F00C00B0EB810F8CD0FEF7E8FFE9
:102FC000801BB842F2D90320BDE8F0814C20C4F246
:102FD00047200121016070470F22026043F608027A
:102FE000C4F20202136803F003034360136803F0A2
:102FF000F0038360136803F4E053C360D2F800C0A9
:103000004FF4E05303EADC030361D2F8F80300F065
:1030100007000860704700004CF2640043F60801A6
:10302000C2F20100C4F202010068096843F2DF2223
:10303000C1F38221C0F60102515CC8407047000014
:103040004CF2640043F60801C2F20100C4F202012E
:103050000068096843F2DF22C1F34231C0F6010281
:10306000515CC8407047000010B543F60404C4F238
:103070000204606800F00C00082842F20040C0F230
:10308000F40018BF10BD21682268236801F03F02D8
:10309000C3F38811A1FB00010023FDF744F9216867
:1030A0000222C1F3014102EB4101B0FBF1F010BD7E
:1030B00010B543F60C04C4F202042068000658BFA1
:1030C00010BDFFF7CFFE8020A07010BD002804BF08
:1030D000012070472DE9F04182B00446007843F6A4
:1030E0000006C007C4F202060CD0B06800F00C0065
:1030F000042840F081803068800303D56068002890
:1031000000F06881207880071BD5B06810F00C0FA4
:1031100009D0B06800F00C00082840F08780706883
:10312000400200F183803068800703D5E068012801
:1031300040F050813068216920F0F80040EAC10079
:1031400030602078000713D4207840072AD4A5697E
:10315000002D00F03A81B06800F00C00082840F023
:10316000A580012D40F00E81012002B0BDE8F08164
:103170006069002800F082800020C4F2472001210D
:10318000C0F8801EFEF704FF054600BF706F800781
:10319000DAD4FEF7FDFE401B0228F7D9032002B067
:1031A000BDE8F081306C5FEAC0080AD400200190CD
:1031B000306C40F080503064306C00F080500190F2
:1031C000019847F20007C4F200073868C00547D4E9
:1031D000386840F480703860FEF7DAFE054600BFBC
:1031E0003868C0053CD4FEF7D3FE401B0228F7D94F
:1031F000032002B0BDE8F081B06800F00C000828A0
:1032000003D1706840023FF576AF61683068B1F570
:10321000803F07D0B1F5A02F40F09A8040F4802085
:103220003060306840F4803030609AE0E068002818
:1032300040F20000C4F247205CD001210160FEF79B
:10324000A7FE0546306880073FF574AFFEF7A0FE85
:10325000401B0228F6D9032002B0BDE8F08100BF70
:10326000A168306F012905D0052955D140F004002F
:103270003067306F40F00100306756E00020C4F244
:1032800047200021C0F8801EFEF782FE054600BFE1
:10329000706F80077FF558AFFEF77AFE401B02285B
:1032A000F6D9032002B0BDE8F08100BF0027C4F2C8
:1032B000472700203866FEF76BFE022D05460DD12C
:1032C0003068800140F18A80FEF762FE401B0228D0
:1032D0004FF00300F4D902B0BDE8F08130688001FE
:1032E00073D5FEF755FE401B02284FF00300F5D9B9
:1032F000F1E700BF00210160FEF74AFE054600BF6E
:10330000306880077FF51DAFFEF742FE401B0228A4
:103310004FF00300F4D9DEE720F001003067306F92
:10332000002920F0040030677AD0FEF731FE054610
:1033300041F28837306F800700F18480FEF728FE65
:10334000401BB842F6D9032002B0BDE8F08100BFAF
:1033500020F4803030603068002920F48020306014
:103360007AD0FEF715FE0546306880033FF5CAAEF9
:10337000FEF70EFE401B6428F6D9032002B0BDE81C
:10338000F08100BF7068E16900F480028A4221D1B7
:10339000216A00F03F028A421CD147F6C071626A7E
:1033A0000140B1EB821F15D1A16A4FF6FF73C9032B
:1033B000994300F44032A1F580318A420AD1E16A92
:1033C00000F07060B0EB016F04D1002002B0BDE8E6
:1033D000F08100BF012002B0BDE8F08104F11C05BE
:1033E0002FCD084340EA8210D9034FF6FF72914374
:1033F000A1F5803140EA056008437060012038661D
:10340000FEF7C6FD044600BF30688001DDD4FEF73C
:10341000BFFD001B02284FF00300F5D95BE700BF9A
:10342000FEF7B6FD054641F2883700BF306F8007D2
:1034300008D5FEF7ADFD401BB8424FF00300F5D9AB
:1034400049E700BFB8F1000F3FF581AE306C20F0C6
:10345000805030647BE600BFFEF79AFD054600BF52
:10346000306880037FF54EAEFEF792FD401B642866
:103470004FF00300F4D92EE77047000070470000BA
:10348000F0B581B030B1416A41B100210161142130
:1034900009E000BF0124204601B0F0BD4168B1F54C
:1034A000827F02D01C210022425000248462416DA0
:1034B000A1BB43F28961C0F60001C165C16F43F24F
:1034C000816243F2916343F28D6543F2856C43F26E
:1034D000956E43F27D4643F27947C0F60002C0F68E
:1034E0000003C0F60005C0F6000CC0F6000EC0F6E2
:1034F0000006C0F600070465026643668566C0F8EC
:103500006CC0C0F870E04667876721B943F29551F7
:10351000C0F60001C167054688472846022141657B
:1035200090E88E0002F482720E6803F4044326F0E1
:1035300040060E601A4407F4006307691A4407F056
:10354000020347691A4407F001038769C6691A44F0
:1035500007F400731A4406F03803066A1A4406F0AA
:103560008003866A1A4306F400531A430A60436ACA
:10357000042202EA174203F010031A444A60CA699F
:1035800022F40062CA61012184654165204601B0D0
:10359000F0BD00002DE9F04F87B0044643F6000768
:1035A0000068C4F200070026B8420696CDE904661A
:1035B0000396029602D007B0BDE8F08F43F63005BF
:1035C0000196C4F2020528690DF1080840F4804014
:1035D000286128694FF0020900F4804001900198A9
:1035E000019628684FF0030A40F00400286028681C
:1035F0004FF0050B00F00400019001980196286837
:10360000414640F002002860286800F00200019066
:1036100001980820029007F5E830CDE90396CDF82F
:1036200014A0CDF818B0FEF7D7FB4FF40050CDE949
:10363000020904A880E8400C07F5E6304146FEF791
:10364000CBFB05F521504CF6F475C2F20105402183
:103650004FF48062C5E900062846C5E90216C5E9AF
:103660000426C5E90666C5E90866FEF7A7FA00283C
:1036700018BFFDF7CFFEA564EC6307B0BDE8F08F7F
:10368000704700007047000070470000704700005E
:10369000704700007047000070470000704700004E
:1036A00070470000C26B012A04BF02207047B0B50A
:1036B00001F108053CCDD1E900CE23F47C5322F47E
:1036C00070521A432EF4F0431A432CF4E0431A4389
:1036D00024F4C0431A432A43C96922F48042036890
:1036E000114359640021C1630020B0BDC26B012A9F
:1036F0004FF0020251D010B502640268D2F804E023
:10370000D2F808C00C682EF07003234341F2FF7416
:10371000C4F20004A24253600EDC40F2FF73C4F214
:1037200000039A4216DCB2F1804F2BD040F20043E6
:10373000C4F2000324E000BF40F2FF33C4F20103EF
:103740009A4213DC41F60003C4F200039A4219D0F6
:10375000002313E040F60003C4F200039A4211D0A4
:1037600040F60043C4F200030AE000BF44F2000345
:10377000C4F201039A4205D040F20043C4F20103AF
:103780009A4204D149682CF08003194391600121C9
:1037900000220164C263BDE810401046704700007B
:1037A000002804BF0120704770B50446006C002853
:1037B00054D10020E06344F6611044F67511C0F660
:1037C0000000C0F6000144F6791243F67D7CC0F695
:1037D0000002C0F6000CC4F8A000C4F8A41044F223
:1037E000A57043F6797144F67D1344F2AD3544F289
:1037F000A176C4F8A820C4F8B0C0C0F60000C0F696
:10380000000143F29D6204F1C00CC0F60003C0F653
:103810000005C0F60006C0F600028CE80700A16EA5
:1038200043F6817EC4F8AC30C4E92E5643F2A1635E
:1038300043F29966C0F6000EC0F60003C0F600061B
:10384000C4F8B4E0C4F8CC30C4F8D06021B943F671
:103850008501C0F60001A166204688470220206449
:103860002068211D03F0FAFC012060666064A064FA
:10387000E06420656065A065E06520662064002046
:1038800070BD000081B000684FF6FF71C4F2000106
:1038900088421FDD44F2FF31C4F2010188423DDC61
:1038A0000021C4F20101884264D044F20001C4F254
:1038B0000101884240F08C800020009043F64400D3
:1038C000C4F20200016841F480310160006800F434
:1038D00080307BE041F20041C4F20001884237D0E1
:1038E00041F60001C4F2000188425FD041F6004178
:1038F000C4F2000188426BD10020009043F64400DE
:10390000C4F2020050F8041C41F0800140F8041C8D
:1039100050F8040C00F0800058E000BF44F2004171
:10392000C4F20101884233D044F60001C4F201011F
:1039300088424DD10020009043F64400C4F20200BA
:10394000016841F480210160006800F480203DE0BE
:103950000020009043F64400C4F2020050F8041C1A
:1039600041F0200140F8041C50F8040C00F0200045
:103970002CE000BF0020009043F64400C4F2020097
:10398000016841F001010160006800F001001DE0E4
:103990000020009043F64400C4F20200016841F4A4
:1039A00000310160006800F400300FE0002000905A
:1039B00043F64400C4F2020050F8041C41F04001F8
:1039C00040F8041C50F8040C00F0400000900098EF
:1039D00001B07047016C01291CBF01207047022112
:1039E0000164006841F2FF72C168C4F200029042B3
:1039F00041F00101C1600DDC40F2FF71C4F2000131
:103A0000884215DCB0F1804F2AD040F20041C4F268
:103A1000000123E040F2FF31C4F20101884213DCCF
:103A200041F60001C4F20001884219D0002113E0E0
:103A300040F60001C4F20001884211D040F6004176
:103A4000C4F200010AE000BF44F20001C4F2010127
:103A5000884205D040F20041C4F20101884206D1FB
:103A6000816801F00701062904BF00207047016842
:103A700041F001010160002070470000C26B012A83
:103A80004FF0020269D080B50264D0F800C04FF652
:103A90007772DCF8083023EA0202CCF808200B68C1
:103AA0004F2B29DC1F2B45DD202B46D0302B44D05B
:103AB000402B40F0AD80D1F804E0C968DCF820303C
:103AC000DCF8202022F00102CCF82020DCF81820BD
:103AD00022F0F00242EA011123F00A0242EA0E0249
:103AE000CCF81810CCF82020DCF8081041F0470181
:103AF00021F0300128E000BF6F2B31DDB3F5005F0E
:103B000072D0B3F5805F21D0702B40F08180D1E975
:103B100001E3C968DCF8082043EA0E0322F47F427F
:103B200043EA01211143CCF80810DCF8081041F0F9
:103B3000770109E00BB1102B6AD1DCF8081021F0F5
:103B40007001194341F00701CCF80810002201214F
:103B500001640021C163BDE880401046704700BF8A
:103B6000502B21D0602B53D1D1F804E0C968DCF888
:103B70002030DCF8202022F01002CCF82020DCF8E5
:103B8000182022F4704242EA013123F0A00242EAF6
:103B90000E12CCF81810CCF82020DCF8081041F0F8
:103BA000670121F01001CFE7D1F804E0C968DCF823
:103BB0002030DCF8202022F00102CCF82020DCF8B4
:103BC000182022F0F00242EA011123F00A0242EA30
:103BD0000E02CCF81810CCF82020DCF8081041F0C8
:103BE000570121F02001AFE7D1E901E3C968DCF812
:103BF000082043EA0E0322F47F4243EA01211143E5
:103C0000CCF80810DCF8081041F480419CE700BFB4
:103C100001229CE7002804BF012070472DE9F047EE
:103C20000446006C0D4600284ED10020E06344F6A7
:103C3000611044F67511C0F60000C0F6000144F6AC
:103C4000791244F67D1343F67D7C43F6817E04F1C0
:103C5000A008C0F60002C0F60003C0F6000CC0F6D3
:103C6000000E88E80F5044F2A57043F6797144F2D3
:103C7000AD3644F2A177C0F60000C0F6000143F271
:103C80009D6204F1C00CC0F60006C0F60007C0F645
:103C900000028CE80700D4F89010C4E92E6743F2C4
:103CA000A16343F29967C0F60003C0F60007C4F8A9
:103CB000CC30C4F8D07029B943F64D51C0F600019C
:103CC000C4F890102046884702202064206844F2FF
:103CD0000702816891438160211D03F0BFFA2068CB
:103CE0004FF6FF7881688269D0F820C0D5E9007E60
:103CF000D5E9023A47EA0109AF6922EA080243EA34
:103D000007234FF6FC47BB43D5E9077642EA0A0290
:103D100029691A4342EA072242EA01112CF0AA0259
:103D20006B6942EA0E0241EA063142EA0312C0F828
:103D3000089081610262012060666064A064606531
:103D4000A06520640020BDE8F0870000F0B587B0D2
:103D50000068002100F140404FEAB020032806919E
:103D6000CDE904110391029100F2B080DFE800F088
:103D700002863E5E002043F630010190C4F202014B
:103D80000A6940F2004742F001020A610A69C4F27E
:103D9000020702F001020192019A01900A680224CE
:103DA00042F001020A600A68012502F00102019254
:103DB000019A01900868032640F002000860086834
:103DC00002A900F00200019001984FF40040029017
:103DD000A7F5806003940495CDE90565FDF7FCFF28
:103DE000082102AA384672C206956CE0002043F60C
:103DF00030010190C4F202010A6942F004020A6132
:103E00000A6902F004020192019A01900A6842F0E4
:103E100002020A60096801F0020101910199C021C2
:103E200002910221CDE9031047E000BF002043F6D4
:103E300030010190C4F202010A6942F008020A61ED
:103E40000A6902F008020192019A019008680122B1
:103E500040F0010008600868022100F001000190B4
:103E6000019803200290CDE9042040F20040C4F202
:103E70000200A0F580600391069124E0002043F643
:103E800030010190C4F202010A6942F002020A61A3
:103E90000A6902F002020192019A01900A6842F056
:103EA00002020A60096801F00201019101993021C2
:103EB00002910221CDE903100320059040F2004059
:103EC0000691C4F2020002A9FDF786FF07B0F0BD1B
:103ED00080B5426C836CD0F854E0D0F858C0042907
:103EE0000AD0A9B9012A4FF0010208BFBEF1010FA3
:103EF0002ED0104680BD00BF012B4FF0010208BF3D
:103F0000BCF1010FF5D102218164816500681AE0DE
:103F1000012A4FF0010208BF012BEAD1BEF1010FC7
:103F2000E7D1BCF1010FE4D1022242648264426510
:103F3000826581B10068016A21F001010162016AB4
:103F400041F00101016210216FF0100207E000BF93
:103F5000022141644165006801216FF00102036A9A
:103F60001A400262026A114301620168002241F0B4
:103F700001010160104680BD7047000070470000DD
:103F80007047000070B504460068C5680669B1074F
:103F900016D515F0020113D06FF002010161012165
:103FA000E1618069800701D0B02004E0D4F8B81046
:103FB00020468847BC202158204688470020E061E1
:103FC000700719D515F0040016D020686FF00401B1
:103FD00001610221E161806910F4407F02D0B020CC
:103FE00005E000BFD4F8B81020468847BC2021580F
:103FF000204688470020E061300717D515F00800FB
:1040000014D020686FF0080101610421E161C069EA
:10401000800701D0B02004E0D4F8B81020468847CB
:10402000BC202158204688470020E061F00619D5C1
:1040300015F0100016D020686FF010010161082102
:10404000E161C06910F4407F02D0B02005E000BFFC
:10405000D4F8B81020468847BC202158204688470D
:104060000020E061F00718BF15F0010002D1300612
:104070000AD414E02068D4F8A0106FF001020261A5
:104080002046884730060AD515F0800007D0206802
:10409000D4F8D0106FF08002026120468847700685
:1040A0000AD515F0400007D02068D4F8A8106FF0AA
:1040B0004002026120468847B00658BF70BD15F027
:1040C000200009D02168D4F8C8206FF020032046D2
:1040D0000B61BDE87040104770BD000080B586B030
:1040E000006844F2FF31C4F2010188424FF0000140
:1040F0000591CDE90311CDE9011123DC0021C4F2C2
:10410000010188423ED044F20001C4F2010188421C
:1041100072D1002143F630000091C4F2020002681F
:10412000602342F0100202600068032200F01000D9
:104130000090009840F20040C4F2020000F5406098
:1041400050E000BF44F20041C4F20101884233D084
:1041500044F60001C4F2010188424DD100200090D4
:1041600043F63000C4F202000168032241F002016C
:1041700001600068022100F00200009000984FF4F6
:1041800000732BE00020009043F63000C4F20200E0
:104190000168012241F0100101600068022100F075
:1041A00010000090009840F20040C4F2020000F5B8
:1041B00040604FF4D44315E0002143F630000091F5
:1041C000C4F2020002684FF4807342F002020260FF
:1041D0000068032200F002000090009840F20040C6
:1041E000C4F202000193022302930023CDE90331BC
:1041F00001A90592FDF7F0FD06B080BDC36B012B50
:1042000004BF022070474FEAB202032A00F2C880BE
:10421000F0B5DFE802F0038B336500BF026840F2BF
:104220000045136A166A23F0020326F0010616629F
:10423000D2F804E0D2F818C08E6842F48064C4F268
:104240000105AC4243EA060305D1CE6823F00C0316
:1042500026F0040633430E68AC4206D1D1E9054787
:104260002EF44075254345EA070E2CF073073743BB
:10427000C2F804E097614968516389E0026840F23E
:104280000045136A176A23F4007327F480771762D6
:10429000D2F804E0D2F81CC08E6842F48064C4F204
:1042A0000105AC4243EA062307D1CE6840F2FF473E
:1042B000360223F44063BE4333430E68AC4206D15A
:1042C000D1E905452EF44057254347EA051E2CF059
:1042D00073073743C2F804E0D7614968D16357E0F8
:1042E000026840F20047D2F820E0136A42F4806688
:1042F00023F4805313625368D4690D68D1F808C061
:10430000C4F20107BE4204D14E6923F4804343EA5C
:10431000861324F4E64646EA05265360D6614968CA
:104320002EF4005747EA0C33116431E0026840F282
:104330000045136A176A23F0200327F0100717625D
:10434000D2F804E0D2F818C08E6842F48064C4F257
:104350000105AC4243EA061307D1CE686FF040076F
:1043600023F0C00307EA061633430E68AC4206D1B9
:10437000D1E905452EF44067254347EA850E2CF424
:10438000E64747EA0627C2F804E097614968916367
:1043900000211362BDE8F0400022C2630846704766
:1043A00001210022C26308467047000070470000E8
:1043B000002804BF0120704770B50446006C002837
:1043C00054D10020E06344F6611044F67511C0F644
:1043D0000000C0F6000144F6791243F67D7CC0F679
:1043E0000002C0F6000CC4F8A000C4F8A41044F207
:1043F000A57043F6797144F67D1344F2AD3544F26D
:10440000A176C4F8A820C4F8B0C0C0F60000C0F679
:10441000000143F29D6204F1C00CC0F60003C0F637
:104420000005C0F60006C0F600028CE80700A16F88
:1044300043F6817EC4F8AC30C4E92E5643F2A16342
:1044400043F29966C0F6000EC0F60003C0F60006FF
:10445000C4F8B4E0C4F8CC30C4F8D06021B944F258
:104460009541C0F60001A1672046884702202064DC
:104470002068211D02F0F2FE012060666064A064E5
:10448000E06420656065A065E0652066206400202A
:1044900070BD000070470000C36B012B04BF0220F9
:1044A00070474FEAB202032A00F2FE802DE9F04382
:1044B000DFE802F002B03E7E036840F200461C6A6C
:1044C0001A6A24F0020422F001021A621A46D3F892
:1044D00004C052F818EF8F6843F48065C4F20106F7
:1044E000B54244EA070405D1CF6824F00C0427F054
:1044F00004073C430F68B54206D1D1E905582CF4B6
:1045000040762E4346EA080C2EF073063743C3F874
:1045100004C09F614F6809695F631C629F6947F02F
:1045200008079F619F6927F004079F61B1E000BF02
:10453000036840F200481C6A1A6A24F4007422F4EA
:1045400080721A621A46D3F804C052F81CEF8F68C2
:1045500043F48065C4F20108454544EA072408D1C4
:10456000CF6840F2FF463F0224F4406427EA060683
:104570003443D1F80090454506D1D1E905562CF4D5
:1045800040572E4347EA061C2EF0730747EA0907F7
:10459000C3F804C0DF614F680969DF631C62DF692B
:1045A00047F00807DF61DF6927F00407DF6170E08B
:1045B000036840F20045D3F820C01A6A43F48067CC
:1045C00022F480521A621A465C6852F81C8FD1F8A5
:1045D00000E08E68C4F20105AF4204D14D6924F4B5
:1045E000804444EA85142CF4005747EA063728F43F
:1045F000E64646EA0E265C60DE614E6809691E6486
:104600001F62DF6947F40067DF61DF6927F48067B5
:10461000DF613DE0036840F200481C6A1A6A24F03A
:10462000200422F010021A621A46D3F804C052F88D
:1046300018EF8F6843F48065C4F20108454544EAE9
:10464000071407D1CF686FF0400624F0C00406EAD3
:1046500007163443D1F80090454506D1D1E90556F7
:104660002CF440672E4347EA860C2EF4E64747EACF
:104670000927C3F804C09F614F6809699F631C62E2
:104680009F6947F400679F619F6927F480679F6176
:1046900009021368194311600021BDE8F0430022AC
:1046A000C2630846704700BF01210022C26308466A
:1046B00070470000002804BF0120704770B5044611
:1046C000006C002856D10020E06344F6611044F6E7
:1046D0007511C0F60000C0F6000144F6791243F6E9
:1046E0007D7CC0F60002C0F6000CC4F8A000C4F83F
:1046F000A41044F2A57043F6797144F67D1344F298
:10470000AD3544F2A176C4F8A820C4F8B0C0C0F614
:104710000000C0F6000143F29D6204F1C00CC0F637
:104720000003C0F60005C0F60006C0F600028CE8E3
:104730000700D4F8801043F6817EC4F8AC30C4E999
:104740002E5643F2A16343F29966C0F6000EC0F6FE
:104750000003C0F60006C4F8B4E0C4F8CC30C4F8D6
:10476000D06029B944F29D71C0F60001C4F88010F0
:1047700020468847022020642068211D02F06EFD3B
:10478000012060666064A064E06420656065A065E7
:10479000E06520662064002070BD000070470000C6
:1047A0007047000070470000C1B1042908D00829F3
:1047B00014BF50224C228258012A05D013E000BFBA
:1047C00048228258012A0ED108290FD0042914BF8B
:1047D00000F1500200F148020AE000BF024652F820
:1047E000443F012B04D00120704700BF00F14C0270
:1047F00002231360006801F01F010122036A02FA1C
:1048000001F123EA01020262026A114341F2FF72DE
:10481000C4F20002904201620CDC40F2FF71C4F26B
:104820000001884214DCB0F1804F37D040F20041E3
:1048300016E000BF40F2FF31C4F20101884215DCEE
:1048400041F60001C4F20001884227D0002115E0A2
:1048500040F60001C4F2000188421FD040F600413A
:10486000C4F20001884219D01FE000BF44F20001E9
:10487000C4F20101884211D040F20041C4F20101AA
:10488000884212D1416C40F2004340F48062C4F28D
:10489000010341F400419A42416406D1816801F06C
:1048A0000701062904BF00207047016841F001019B
:1048B000016000207047000080B58446006801F068
:1048C0001F034FF0010E026A0EFA03F39A430262CD
:1048D00040F20042D0F820E040F48063C4F20102CC
:1048E0009342C0F820E009D1026A41F211131A4242
:1048F00004D1026A40F244431A420FD0026A41F2E4
:1049000011131A4213D1026A40F244431A420ED1E3
:10491000026822F00102026009E000BF426C22F44A
:1049200000424264026A41F211131A42EBD089B18B
:10493000082909D0042914BF502148210122002050
:104940004CF8012080BD00BF4C21012200204CF812
:10495000012080BD4421012200204CF8012080BDAF
:10496000006842F20001C4F20001884218BF70479B
:10497000FEF786B9704700007047000070470000DE
:10498000836C202B0AD194460A4600294FF001017E
:1049900018BFBCF1000F05D1084670470221084638
:1049A000704700BFB0B582B001210163002522210C
:1049B00045638262A0F82CC0C5648164C36B47F272
:1049C000495E47F2A564C0F6000EC0F60004016817
:1049D000C3E910E447F2D134C0F60004C3E914453A
:1049E0000431044618466346FDF792F901952168A3
:1049F00020460A680192496801910199216929B309
:104A0000016851E8031F026841F4807142E8031312
:104A1000E3B1016851E8031F026841F4807142E884
:104A200003139BB1016851E8031F026841F48071D0
:104A300042E8031353B1016851E8031F026841F4CF
:104A4000807142E80313002BDAD100BF016851E8FE
:104A5000051F026841F0010142E80513BBB301687C
:104A600051E8051F026841F0010142E8051373B3E4
:104A7000016851E8051F026841F0010142E8051391
:104A80002BB3016851E8051F026841F0010142E8BB
:104A90000513002BDAD11AE0016851E8051F0268FE
:104AA00041F0400142E80513DBB1016851E8051F00
:104AB000026841F0400142E8051393B1016851E8F2
:104AC000051F026841F0400142E805134BB101683F
:104AD00051E8051F026841F0400142E80513002B30
:104AE000DAD1016B012933D10021009101680A68F4
:104AF0000092496800910099016851E8031F02681B
:104B000041F0100142E80313DBB1016851E8031FD3
:104B1000026841F0100142E8031393B1016851E8C3
:104B2000031F026841F0100142E803134BB1016812
:104B300051E8031F026841F0100142E80313002B03
:104B4000DAD1002102B0BDE8B0400846704700BF8E
:104B5000012102B0BDE8B040084670477047000030
:104B60007047000010B50446206850E8030F216824
:104B700020F4907041E80302BAB3206850E8030FB4
:104B8000216820F4907041E8030272B3206850E875
:104B9000030F216820F4907041E803022AB32068D3
:104BA00050E8030F216820F4907041E80302002AC6
:104BB000DAD11AE0206850E8050F216820F00100E2
:104BC00041E80502DAB1206850E8050F216820F0BD
:104BD000010041E8050292B1206850E8050F216804
:104BE00020F0010041E805024AB1206850E8050FB5
:104BF000216820F0010041E80502002ADAD1206B8B
:104C0000012824D1206850E8030F216820F010000B
:104C100041E80302DAB1206850E8030F216820F070
:104C2000100041E8030292B1206850E8030F2168A8
:104C300020F0100041E803024AB1206850E8030F59
:104C4000216820F0100041E80302002ADAD1206830
:104C50004069400636D500BF206850E8050F21683E
:104C600020F0400041E80502DAB1206850E8050F65
:104C7000216820F0400041E8050292B1206850E828
:104C8000050F216820F0400041E805024AB1206884
:104C900050E8050F216820F0400041E80502002A95
:104CA000DAD1E06B70B100214165FCF75DFE48B1DF
:104CB000E06BFCF7A9FE202804D11020E06403205B
:104CC00010BD00BF00202021E085A164206310BD3D
:104CD000704700007047000070470000B0B582B018
:104CE00001680A68CC684B6902F02F05202D04F09A
:104CF000200505D125B102B0BDE8B04002F03ABDB3
:104D00005FEA027C1EBF03F0010E04F4907313EB04
:104D10000E033FD1036BD50618D5012B16D114F025
:104D2000100313D0002201920A6801924A6801928E
:104D3000019A4969490647D4818DC28DC38D002BE4
:104D400018BF914240F0F08102B0B0BD13062BD5E0
:104D500014F0800328D0426C212AF5D18268B2F584
:104D6000805F03D10269002A00F06482026A531C4A
:104D7000036212784A60C28C013A1304C284E3D100
:104D8000C86820F08000C860C86840F04000C86073
:104D900002B0B0BDD30718BF14F4807340F0CE80CA
:104DA000530700F1D180D6E05206CDD514F0400271
:104DB000CAD0CA6822F04002CA6020214164416D15
:104DC00002B0BDE8B0400847C16B0A68526893B2B0
:104DD000002BB9D0858DAB42B6D2C285C969B1F579
:104DE000807F00F09F80016851E8031F026821F472
:104DF000807142E80313DBB1016851E8031F0268C8
:104E000021F4807142E8031393B1016851E8031F54
:104E1000026821F4807142E803134BB1016851E844
:104E2000031F026821F4807142E80313002BDAD1DA
:104E3000016851E8051F026821F0010142E80513ED
:104E4000BBB3016851E8051F026821F0010142E887
:104E5000051373B3016851E8051F026821F00101D1
:104E600042E805132BB3016851E8051F026821F0E1
:104E7000010142E80513002BDAD11AE0016851E87C
:104E8000051F026821F0400142E80513DBB101680B
:104E900051E8051F026821F0400142E8051393B173
:104EA000016851E8051F026821F0400142E805133E
:104EB0004BB1016851E8051F026821F0400142E84A
:104EC0000513002BDAD120218164002101630168E0
:104ED00051E8031F026821F0100142E80313DBB11F
:104EE000016851E8031F026821F0100142E8031332
:104EF00093B1016851E8031F026821F0100142E8F4
:104F000003134BB1016851E8031F026821F010013F
:104F100042E80313002BDAD1C16B04460846FCF7C4
:104F200023FD204602214163426F818DC38DC91A42
:104F300089B202B0BDE8B040104700BFC36C43F077
:104F40000103C364530706D5BEF1000F03D0C36C41
:104F500043F00203C364930706D5BEF1000F03D0EC
:104F6000C36C43F00403C364BCF1000F06D55EEAD2
:104F7000050303D0C36C43F00803C364C36C002B68
:104F80003FF4E2AE920605D525B1044602F0F2FBED
:104F9000216820464969C26C01F0400102F0080214
:104FA000891800F0B98000BF016851E8031F02684A
:104FB00021F4907142E80313BBB3016851E8031F69
:104FC000026821F4907142E8031373B3016851E859
:104FD000031F026821F4907142E803132BB30168A8
:104FE00051E8031F026821F4907142E80313002B7B
:104FF000DAD11AE0016851E8051F026821F00101C9
:1050000042E80513DBB1016851E8051F026821F091
:10501000010142E8051393B1016851E8051F0268D8
:1050200021F0010142E805134BB1016851E8051F69
:10503000026821F0010142E80513002BDAD1016B6F
:10504000012924D1016851E8031F026821F01001F1
:1050500042E80313DBB1016851E8031F026821F045
:10506000100142E8031393B1016851E8031F02687D
:1050700021F0100142E803134BB1016851E8031F0E
:10508000026821F0100142E80313002BDAD120213D
:1050900081640021016301684969490640F1C480C7
:1050A000016851E8051F026821F0400142E805133C
:1050B000DBB1016851E8051F026821F0400142E8B8
:1050C000051393B1016851E8051F026821F0400102
:1050D00042E805134BB1016851E8051F026821F051
:1050E000400142E80513002BDAD1C16B002900F022
:1050F0009B8047F2C532C0F60002044608464A6566
:10510000FCF772FC00283FF41FAEE06B416D02B06B
:10511000BDE8B040084700BF016E04468847002044
:10512000E06402B0B0BD00BF891A00BF026852E857
:10513000032F036822F4907243E80325BDB302688D
:1051400052E8032F036822F4907243E8032575B3F5
:10515000026852E8032F036822F4907243E80325A3
:105160002DB3026852E8032F036822F4907243E8DB
:105170000325002DDAD11AE0026852E8052F0368F2
:1051800022F0010243E80525DDB1026852E8052F4F
:10519000036822F0010243E8052595B1026852E850
:1051A000052F036822F0010243E805254DB102688E
:1051B00052E8052F036822F0010243E80525002D7F
:1051C000DAD1202282640022026300BF026852E822
:1051D000032F036822F0100243E80325DDB10268C3
:1051E00052E8032F036822F0100243E8032595B12B
:1051F000026852E8032F036822F0100243E80325F7
:105200004DB1026852E8032F036822F0100243E810
:105210000325002DDAD102224263426F89B202B027
:10522000BDE8B040104700BF016E02B0BDE8B0401D
:10523000084700BF026A32F8023B6FF35F234B60FE
:10524000026298E5002804BF0120704770B504464B
:10525000406CC8BB002045F60101206445F60500FE
:10526000C0F60001C0F600006165A16F45F245720D
:1052700045F2417344F6D94C44F6613E44F6D545B7
:1052800044F6D146206544F65D30C0F60002C0F613
:105290000003C0F6000CC0F6000EC0F60005C0F614
:1052A0000006C0F60000A265E365C4F860C0C4F85B
:1052B00064E0C4E91A56606721B945F20531C0F6C9
:1052C0000001A16720468847242060642068C168E7
:1052D00021F40051C160204602F0CAFA2068016939
:1052E00021F490410161416921F02A014161C168C5
:1052F00041F40051C16000202021E0646164A16498
:10530000606370BD2DE9F04786B00446006844F63E
:10531000FF71C4F2000188424FF000010591CDE910
:105320000311CDE901117DDD41F20041C4F201011B
:10533000884200F0DB8041F20001C4F201018842A2
:1053400000F0FE8045F20001C4F20001884240F006
:105350002381002743F630000097C4F20200016960
:1053600040F6004541F4801101610169C4F2020573
:1053700001F48011009100990097016801AE41F09D
:105380000401016001684FF0020801F0040100917E
:105390000099009701684FF0030941F0080101608E
:1053A00000684FF0080A00F00800009000984FF4E1
:1053B00080500190A5F580603146CDE90287CDF897
:1053C0001090CDF814A0FCF707FD0420CDE90108EA
:1053D00003A880E8800628463146FCF7FDFC4DF224
:1053E000580546F21000C2F20105C4F202004FF067
:1053F000006185E883004FF480304FF48062C5E996
:1054000008072846C5E90372C5E90577EF61FCF78F
:10541000D5FB002818BFFBF7FDFFE563EC6306B082
:10542000BDE8F08744F20041C4F20001884200F078
:10543000B78044F60001C4F20001884240F0AC801D
:10544000002643F630000096C4F20200016946F2DD
:10545000100841F4802101610169C4F2020801F4DD
:105460008021009100990096016841F008010160D7
:10547000006801A900F00800009000984FF4407007
:1054800001900220CDE90206032004900720059038
:1054900040F60040C4F20200FCF79EFC4DF2841579
:1054A00008F11800C2F201054FF0006A4FF480695C
:1054B0004FF48071C5E9000A4FF400372846C5E96A
:1054C0000266C5E90496C5E90661C5E90876FCF7F8
:1054D00075FB002818BFFBF79DFFE563EC634DF2F9
:1054E000E81508F14800C2F20105ABE0002043F6E0
:1054F00030010090C4F202014A6942F020024A6180
:105500004A6902F020020092009A0090086840F078
:1055100004000860086800F0040000900098C020B3
:1055200001900220029001200390032004900820A3
:10553000059040F60040C4F20200A0F5806028E02B
:10554000002043F630010090C4F202014A6942F0A3
:1055500010024A614A6902F010020092009A00901B
:105560000A6842F001020A60096801F00101009135
:1055700000994FF4C06101910221CDE9021003208E
:1055800004900720059040F60040C4F20200A0F508
:10559000406001A9FCF720FC06B0BDE8F08700BF21
:1055A000002643F630000096C4F20200016946F27C
:1055B000100841F4003101610169C4F2020801F4EC
:1055C0000031009100990096016841F008010160E6
:1055D000006801A900F00800009000986020019088
:1055E0000220CDE90206032004900720059040F632
:1055F0000040C4F20200FCF7EFFB4DF2BC0508F1DD
:105600007800C2F201054FF0006A4FF48069C5E9E5
:10561000000A4FF480372846C5E90266C5E90496BA
:10562000C5E90666C5E90876FCF7C8FA002818BF80
:10563000FBF7F0FEE563EC634DF2201508F19000F6
:10564000C2F20105402128602846C5F804A0A960DF
:10565000EE60C5F810906E61AE61EE61C5E9087646
:10566000FCF7ACFA002818BFFBF7D4FEA563EC6387
:1056700006B0BDE8F0870000A2B1436C202B0FD12B
:105680000C290FD8DFE801F00828203438242C300A
:105690000E0E0E181C0000BF02650020704700BFF0
:1056A000436C2BB1C16C41F02001C16401207047F3
:1056B0000C2905D00B29F5D182670020704700BF67
:1056C000C2670020704700BF82650020704700BF9E
:1056D00042660020704700BF42650020704700BF4F
:1056E00082660020704700BFC2660020704700BF7E
:1056F000C2650020704700BF0266002070470000AE
:1057000071B1026C012A04BF02207047426C202A4A
:105710000CD141670021002202640846704700BF97
:10572000C16C41F02001C16401207047C16C41F09F
:105730002001C16401210022026408467047000074
:105740007047000070470000B0B5446C202C1CBFAF
:105750000220B0BD134600294FF0010218BF002BF4
:1057600002D11046B0BD00BF002221240162838413
:10577000C384C2644464D0F838C047F2BD6E47F2B7
:105780006D75C0F6000EC0F600050468CCE910E5A2
:1057900047F2D135C0F60005CCE91452221D04466B
:1057A0006046FCF7B5FA216820466FF040020A60B7
:1057B000016851E8051F026841F0800142E80513C5
:1057C000DBB1016851E8051F026841F0800142E841
:1057D000051393B1016851E8051F026841F080018B
:1057E00042E805134BB1016851E8051F026841F01A
:1057F000800142E80513002BDAD100221046B0BD2B
:105800007047000070470000FEE70000F0B581B06F
:105810001C4615460F46064600F0FAF9304600F0E1
:105820009BF900F085FA70B9384600F095F900F060
:105830007FFA40B900F0ECF946F0010000F08CF975
:1058400000F076FA10B1012001B0F0BD5CB1013D6D
:10585000E0B2013818BF012000F01EF9013C21061A
:1058600005F8010FF4D100F01BFA002001B0F0BDE3
:1058700070B514460D46064600F0CAF9304600F0F1
:105880006BF900F055FA00281CBF012070BD44B12F
:1058900015F8010B00F060F900F04AFA30B9013C4C
:1058A000F6D1002400F0FCF9204670BD012400F080
:1058B000F7F9204670BD0000F0B581B01C461546D2
:1058C0000E46074600F0A4F9384600F045F900F00E
:1058D0002FFA28B9304600F03FF900F029FA18B144
:1058E000012001B0F0BD00BF4CB100BF15F8010BA5
:1058F00000F032F900F01CFA40B9013CF6D1002466
:1059000000F0CEF9204601B0F0BD00BF012400F048
:10591000C7F9204601B0F0BDB0B586B040F20044F2
:10592000C4F2020420464FF4806100220025FCF7F7
:1059300029FB4FF4006001900120CDE9020503200E
:10594000049001A920460595FCF746FA20464FF43D
:1059500000610022FCF716FB02250195019840B179
:10596000002000BF00BF01990130C1EBC101884296
:10597000F8D320464FF480610122FCF703FB019528
:10598000019840B1002000BF00BF01990130C1EB78
:10599000C1018842F8D320464FF480610022FCF711
:1059A000F1FA06B0B0BD00002DE9F04186B040F23A
:1059B00000444FF40060C4F2020401AD00260190DF
:1059C0004FF001080327204629460596CDE90286B7
:1059D0000497FCF701FA4FF48060CDE901082046F6
:1059E0002946CDE90367FCF7F7F920464FF400613B
:1059F0000122FCF7C7FA20464FF480610122FCF730
:105A0000C1FA06B0BDE8F081B0B586B040F20044FE
:105A1000C4F2020420464FF4806100220025FCF706
:105A2000B1FA4FF4006001900120CDE90205032096
:105A3000049001A920460595FCF7CEF920464FF4C5
:105A400000610122FCF79EFA02250195019840B100
:105A5000002000BF00BF01990130C1EBC1018842A5
:105A6000F8D320464FF480610122FCF78BFA0195B0
:105A7000019840B1002000BF00BF01990130C1EB87
:105A8000C1018842F8D320464FF480610022FCF720
:105A900079FA06B0B0BD00002DE9F04385B080462C
:105AA00040F2004500264FF40060C4F20205CDE943
:105AB000000603204FF0010903906946284604962A
:105AC000CDF80890FCF788F90224002706E000BF13
:105AD00040EA4606072F07F101072DD228464FF46A
